:10000000E01400207566000097130000CF13000075
:1000100033140000FF1400007715000000000000FA
:100020000000000000000000000000005717000062
:1000300087170000000000004B1C0000A31E0000FA
:100040001F1F0000D31F000045420000593500006B
:100050000B2D0000132D0000F9520000D7350000D1
:10006000C55B0000CD5B0000D55B00008F38000051
:10007000773A0000DB3A00001F500000835A00006E
:1000800073620000E76400004566000067660000D8
:1000900073660000D1660000D3660000D5660000DC
:1000A000D7660000D9660000DD5B0000E55B00005C
:1000B000DB660000DD6600000000000000000000BC
:1000C000DF660000E1660000E3660000E566000010
:1000D000E7660000E9660000EB660000ED660000E0
:1000E000EF660000F1660000F3660000000000000B
:1000F00000000000F566000000000000F766000048
:1001000000000000000000000000000000000000EF
:1001100000000000000000000000000000000000DF
:1001200000000000000000000000000000000000CF
:1001300000000000000000000000000000000000BF
:1001400000000000000000000000000000000000AF
:10015000000000000000000000000000000000009F
:10016000000000000000000000000000000000008F
:10017000000000000000000000000000000000007F
:10018000000000000000000000000000000000006F
:10019000000000000000000000000000000000005F
:1001A000000000000000000000000000000000004F
:1001B000000000000000000000000000000000003F
:1001C000000000000000000000000000000000002F
:1001D000000000000000000000000000000000001F
:1001E000000000000000000000000000000000000F
:1001F00000000000000000000000000000000000FF
:100200002DE9F04F80460FF21C60A5B017461D4641
:10021000D0E90023CDE91223002004910D900DF1C7
:10022000500A6FF0004900E0E7190020ADF8020025
:1002300012AB4FF0FF3239460DF1020001F08BF89E
:100240000446012C04DA3878441EA441E443E40F48
:10025000BDF8020025280CBFA4F1010BA346BBF199
:10026000010F0EDB3E4616F8011B0498C04700281C
:10027000049000F0D2820D98401CBBF1010B0D9050
:10028000F1D1BDF80200252807D100200790089081
:1002900009900A900B900C9005E00028C4D10D98AD
:1002A000BDE240F0010017F8011F2029F9D02329F1
:1002B0000DD02B2904D02D2906D030290AD00CE0EE
:1002C00040F0020080B2EEE740F00400FAE740F0B0
:1002D0000800F7E740F01000F4E72A290ED129685A
:1002E000296051F8042B2960002A0F9204D551424D
:1002F00040F004000F9180B27F1C11E000210F91AB
:1003000009E00F99494505D001EB810302EB430158
:1003100030390F917F1C3A78A2F130010A29F0D3CD
:1003200039782E2903D04FF0FF310E911DE017F8D8
:10033000011F2A2907D1296829607F1C51F8042B45
:1003400029600E9211E000210E9109E00E994945B5
:1003500005D001EB810302EB430130390E917F1C84
:100360003A78A2F130010A29F0D3ADF840000FF23B
:10037000BC40397801F004F808B117F8010B8DF88A
:1003800042009DF84200682802BF3978682962203F
:1003900005D06C2804BF38786C2803D171208DF803
:1003A00042007F1C14A8069017F8014BB4F12500F9
:1003B0002AD01C3800F0CB80001F022840F2C780F2
:1003C000133800F0EC80093800F0C180801E00F086
:1003D0005381401E00F02C81401E022840F2B7805D
:1003E000001F00F02581401F00F08280401E00F0B9
:1003F000D680401E2CD0C01E0BD0801E00F0CF80B7
:10040000C01E00F0CC805AE125208DF8500001205C
:100410005EE19DF842006C282868286014D050F8EE
:10042000046B286005960E9C002C04D5304600F025
:10043000B3FF044606E022460021304600F0C8FF24
:1004400000B1841B089444E150F8042B28602FE18C
:10045000296829603C2451F8040B29600021CDE96A
:10046000020114A80590DDE90201069E11B908B940
:100470000E9AB2B10206120FA0EB02123032D2B2C3
:10048000631E3A2AA8BF2732000940EA0170090911
:100490009A5508BF00281C4603D0059AA3199A4212
:1004A000E8D3A0190590C4F13C010E98089181424F
:1004B00009DA401A0A904FF6EF71BDF84000084083
:1004C000ADF8400005E1002840F103819DF84000AF
:1004D00000F01400102840F0FC800F98079A801A52
:1004E0000A9A801A441A012CC0F2F3800A94F0E0B0
:1004F0009DF8420062281AD0682806D06A280CD0DD
:100500006C281CD0712808D019E02868286050F8A1
:10051000041B28600D980880DBE02868286050F8EC
:10052000042B28600D98C117C2E90001D1E02868AA
:10053000286050F8041B28600D980870C9E02868EE
:10054000286050F8041B28600D980860C1E02868F6
:10055000C01D20F007022A60D2E9000108322A609B
:10056000CDE90201002902D507982D210AE0BDF846
:100570004000810702D507982B2103E0C00705D56D
:100580000798202100F80A10401C079014A807992A
:1005900008180590214602A800F090FB99E09DF80C
:1005A00042006C280DD0712818BF6A2809D128682C
:1005B000C01D20F007022A60D2E9000108322A603B
:1005C00005E02968296051F8040B29600021CDE974
:1005D00002019DF84200682803D1DDE9020180B2E2
:1005E0000BE0622803D1DDE90201C0B205E0742806
:1005F00018BF7A2804D1DDE902010021CDE902010A
:100600009DF8400000072ED5DDE90201002908BF52
:10061000002828D044F02000782824D107983021E1
:1006200000F80A10401C411C079100F80A401AE02B
:100630009DF84200294600F0FDF8CDE902010029AD
:1006400002DA07982D210AE0BDF84000810702D5A3
:1006500007982B2103E0C00705D50798202100F853
:100660000A10401C079014A8079908180590214605
:1006700002A800F09FFA2CE09DF842006C2809D0F7
:10068000012007902868286050F8041B28608DF826
:1006900050101EE02868286001AA50F8041B28604A
:1006A000ADF804100020ADF806004FF0FF300E90BA
:1006B00002A9404600F0F5F800280AD5ADE0252053
:1006C0008DF85000012007901CB18AF801400220EB
:1006D00007900F980799401A0A99401A0899401AEA
:1006E0000B99401A0999401A0C99441A9DF8400038
:1006F000400710D420208DF80000002609E00123D7
:1007000000AA02A9404600F001FE002840F08580C2
:10071000761CA642F3DB079E0DF1500B0AE01BF896
:10072000011B0498C0470028049076D00D98401C07
:100730000D90761E002EF2D130208DF800004FF083
:10074000000B0A9E09E0012300AA02A9404600F01E
:10075000DDFD002861D10BF1010BB345F3DB089EF1
:10076000DDF814B00AE01BF8011B0498C04700280C
:10077000049052D00D98401C0D90761E002EF2D1A0
:1007800030208DF800004FF0000B0B9E09E0012394
:1007900000AA02A9404600F0B9FD00283DD10BF1A6
:1007A000010BB345F3DB05980899099E01EB000B9B
:1007B00009E01BF8011B0498C047049068B30D982A
:1007C000401C0D90761E002EF3D130208DF80000D5
:1007D0004FF0000B0C9E08E0012300AA02A940463E
:1007E00000F094FDC8B90BF1010BB345F4DB9DF8A3
:1007F000400040077FF519AD20208DF8000000264D
:1008000000E0761CA642BFF610AD012300AA02A9A3
:10081000404600F07BFD0028F3D04FF0FF3025B0BC
:10082000BDE8F08F0000000000000000686A6C74F2
:100830007A4C0000622826D068281DD06A2808D08B
:100840006C2827D0712804D0742823D07A280CD0A3
:1008500020E00868C01D20F007000860D0E90023F0
:10086000083008601946104670470A680A6052F856
:10087000040B0A60002170470A680A6052F8040BF2
:100880000A6000B20BE00A680A6052F8040B0A60C2
:1008900040B204E00A680A6052F8040B0A60C1170B
:1008A00070472DE9F44F0D4694B0D5F830B0BBF148
:1008B000000F804648BF6FF0004B00F0B5FD696B3C
:1008C000401801900FF67420D0E90023CDE90223EF
:1008D00095F83800400702D40198412806D24020FC
:1008E0000DF1100A01904FF0000909E000F0A2FD9F
:1008F0005FEA000AF7D14FF0FF3058E1ABEB040B91
:10090000BBF1010FC0F2CD801498018802AA0DF14D
:10091000010000F0E7FD0028044600F1D58014989E
:10092000008810B9641E00F1CF80A345C0F2B980E1
:10093000686901992218914280F0A180296AC5F85E
:1009400034904042401AA969401A696A401AE9691C
:10095000401AA96AA0EB010995F83800400710D4A5
:1009600020208DF80000002609E0012300AA294676
:10097000404600F0CBFC002840F0A680761C4E4597
:10098000F3DB6E6957460BE017F8011BA868C047F8
:100990000028A86000F09880E86A401CE862761E93
:1009A000002EF1D130208DF8000000272E6A09E0DA
:1009B000012300AA2946404600F0A8FC002840F088
:1009C00083807F1CB742F3DBAE69EF680AE017F85B
:1009D000011BA868C0470028A86075D0E86A401CC1
:1009E000E862761E002EF2D130208DF8000000273C
:1009F0006E6A08E0012300AA2946404600F086FC02
:100A0000002861D17F1CB742F4DBE868A969EE6970
:100A10000F180AE017F8011BA868C0470028A86053
:100A200052D0E86A401CE862761E002EF2D13020D7
:100A30008DF800000027AE6A08E0012300AA2946CD
:100A4000404600F063FC00283ED17F1CB742F4DB37
:100A500095F8380040070ED520208DF800000026BC
:100A600007E0012300AA2946404600F04FFC58BB8E
:100A7000761C4E45F5DB4FF00009C5F81490224670
:100A800068690DF10101504400F03AFD68692018D1
:100A900068611498801C1490801E008800287FF4E0
:100AA0002DAF686B6969401A296A401AA969401A12
:100AB000696A401AE969401AA96A471A95F8380024
:100AC000400710D400240CE04FF0FF3968E0A8681C
:100AD0002021C0470028A860F6D0E86A401CE862E0
:100AE000641CBC42F3DB6B6952462946404600F069
:100AF0000DFC0028E8D12C6A002609E0A868302106
:100B0000C0470028A860DFD0E86A401CE862761C75
:100B1000A642F3DBAB69EA682946404600F0F6FBE3
:100B20000028D1D16C6A002609E0A8683021C047AE
:100B30000028A860C8D0E86A401CE862761CA6427B
:100B4000F3DBE868A969EB690A182946404600F01A
:100B5000DDFB0028B8D1AC6A002609E0A868302186
:100B6000C0470028A860AFD0E86A401CE862761C45
:100B7000A642F3DB95F8380040070DD5002409E0C4
:100B8000A8682021C0470028A8609DD0E86A401CC2
:100B9000E862641CBC42F3DBC5F81490C5F83490DD
:100BA00004A882451CBF504600F0E6FC484615B03C
:100BB000BDE8F08F2DE9FA4E05460A462F696F2AE7
:100BC00008BF082405D041F02000782814BF0A246B
:100BD00010243C26D5E90001642A18BF692A814601
:100BE0008A4605D1002903DAD9F100096AEB4A0ADD
:100BF000BAF1000F08BFB9F1000F0CD1286B50B942
:100C0000082C36D195F83800000732D530203B2625
:100C100087F83B002DE0E31748465146224600F096
:100C2000EBFCA4FB0023A9EB02023032D2B2A6F106
:100C3000010B3A2A5E4603DB9DF80030513B9A18BF
:100C400081465FEA010A0BF8072008BFB9F1000FDF
:100C500003D0E868F1198842DDD3082C09D195F852
:100C60003800000705D5F05D302802D0761E302010
:100C7000F055C6F13C00A861F119E960296B884282
:100C800008DA081A28624FF6EF71288F0840288783
:100C9000BDE8F38E00290ED595F8381001F0140147
:100CA000102908D1696B6A69891A2A6A891A0E1A89
:100CB000012EA8BF2E62BDE8F38E00002DE9F24F91
:100CC00004468EB0D4E90001CDE9020104AF9DF8DD
:100CD000380040F0200BBBF1610F0AD0206B0028D8
:100CE00048BF062004D408BFBBF1670F01D1012023
:100CF00020636168C1F30A5040F2FF7290421CD138
:100D0000080304BF2068002809D10320A0619DF8D2
:100D1000380061381A2836D30FF2346108E0032016
:100D2000A0619DF8380061381A2829D30FF21861A4
:100D3000E068032200F0E4FBBEE1012816DA204659
:100D400000F0D1FC012811DB00250020BBF1610F70
:100D500020D1E168302201F8012B4A1CE2609DF8A5
:100D60003820612A0CBF782258220FE0626840F2D6
:100D7000FE3161F31E52451A62604FF0FF30E5E725
:100D80000FF2C051D4E70FF2C451D1E70A70616984
:100D9000891C616110B90026002584E1BBF1610F57
:100DA00040F09780206BD4E900AB00284CBF21268F
:100DB000461CDDE902010022002300F0B5FC36B23A
:100DC0003ABF8BF00040CDE902A0CDE902AB06F1BD
:100DD00001082D1F8DF810200DF1110700E0C71D2F
:100DE000B8F1010F33DBDDE902010022002300F03E
:100DF000B3FC2CD21C2102A800F0C6FCDDE90201E4
:100E000000F04EFDA8F10708B8F1010F814609DB9B
:100E100000F072FD02460B46DDE9020100F084FDA0
:100E2000CDE90201F81D072105E009F00F0200F8E5
:100E3000012D4FEA2919B9F1010F01DB491EF4D543
:100E4000491E5CBF002200F8012DF9D5C7E70DF15E
:100E50001100391AB142B8BF0E4636B230000DF15A
:100E600011072FD4884206DA04A9411849780829C5
:100E7000A8BF0F2100DA002104AA821800E0761E24
:100E800012F80139401E8B42F9D00F2904D104A970
:100E900041184A78521C4A70002802D504AF761CCB
:100EA0002D1D36B2701E0DD4C1190A783032D2B25F
:100EB0003A2A03DB9DF838303A3B9A18401E01F875
:100EC0000129F2D5206B002840F1ED80701E2063CF
:100ED000E9E0DDE902010022002300F025FC3CBF2F
:100EE00081F00041CDE902012DB247F297506843ED
:100EF0004B49DFF8309190FBF1F52DB2C5F1070AAF
:100F0000BAF1010F90461CDBDDE902675FEACA70A7
:100F100007D542464B463046394600F0C5FD0646E9
:100F20000F464046494642464B464FEA6A0A00F0A1
:100F3000BBFDBAF1000F80468946E7D1CDE90267D3
:100F400024E0CAF1000A0026374F14E05FEACA70B5
:100F500007D542464B463046394600F0A5FD0646C9
:100F60000F464046494642464B4600F09DFD4FEA3B
:100F70006A0A80468946BAF1000FE7D1DDE902012D
:100F800032463B4600F062FECDE90201BBF1660F3E
:100F9000216BDFF898900CBF05F10A000620461877
:100FA000142EA8BF132630208DF810000DF1110764
:100FB000012E3DDBDDE9020100F088FC07F10801AC
:100FC00004220A23B0FBF3F303EB8307A0EB4700F3
:100FD000303001F8010C0A20B3FBF0F000EB800781
:100FE000A3EB47033033521E01F8023DE9D1083E1E
:100FF000012E01F10807DBDBDDE9020100F066FCF0
:1010000000F084FC02460B46DDE9020100F08CFC96
:1010100000224B4600F048FDCDE90201CAE700BFBF
:10102000A0860100000024400000F03F84D79741D3
:101030000DF11100381A0DF1110702E0401E6D1E6E
:101040007F1C39783029F9D0BBF1660F02D12DB25F
:10105000691C04E0BBF1650F0CBF01210021226B6C
:101060008E1836B2B042B8BF064636B231001AD436
:10107000814204DAC85D3528A8BF392000DA302063
:10108000CA19521E00E0761E12F80139491E834229
:10109000F9D0392802D1C85D401CC855002902D5B5
:1010A0007F1E761C6D1C2DB29DF83810009533B252
:1010B0003A46204600F003F80FB0BDE8F08F2DE966
:1010C000F04786B006468A4690461D4600F007FF68
:1010D000012D406A376B90F8009002DA01250FF27B
:1010E00074284AF02000BDF93840662808BF641C07
:1010F00012D0672876D114F1040F79DBBC4277DA7D
:1011000096F83800641C000702D4BD42B8BF2F46D1
:1011100024B23F1B48BF002724B2F068B169012CFC
:1011200021DA4A1C30230B54012F03DA96F83810C9
:10113000090702D502F80090521CE742B8BF7C4272
:1011400024B2E7196142AF42B2617162B8BF3D4655
:10115000B3692DB2F5612A464146181800F0D0F95E
:10116000781BB062BBE00818A54216DA2A46414651
:1011700000F0C6F9B1696918601B012FB161706296
:1011800003DA96F83800000705D5F06801F80090FA
:10119000F069401CF061B762A1E02246414600F0D0
:1011A000AFF9B06920182D1B012F03DA96F838101B
:1011B000090703D5F16800F80190401CB0612DB219
:1011C000AF42B8BF3D46F068B3692DB22A4604EB82
:1011D0000801181800F094F9B0692818B061781B5C
:1011E00070627CE0BAF1610F14D14FF0700A16E022
:1011F000BD4204DA96F83810090758BF2F467F1E03
:1012000048BF0027BAF1670F14BF4FF0450A4FF0EF
:10121000650A04E0BAF1410F08BF4FF0500AB16906
:10122000F06818F8013B0B544A1C012F05DA96F8B8
:101230003810090758BFB26115D502F80090531C49
:10124000012FB3610FDB6D1E2DB2AF42B8BF3D461B
:101250002DB22A464146181800F052F9B0692818F4
:10126000B061781B7062F068B1690918200081F8DC
:1012700000A004D42B20487001F1020804E02D22C4
:101280004A7001F102086442002502AF08E00A2218
:1012900000A800F03DFE019807F8010B6D1C009CB2
:1012A00021B20129F3DA022D06DA4AF0200065287E
:1012B00004BF302008F8010B4DB9302008F8010BAD
:1012C00007E06D1E02A8285C303008F8010B012DE4
:1012D000F7DAF068B1690818A8EB0000F06196F839
:1012E000380000F0140010280DD17069B169081899
:1012F000716A0818F1690818B16A0818716B884298
:10130000BCBF081A306206B0BDE8F087F8B50446E5
:101310000D4616461F46002004E0E86A401CE862BD
:101320007F1E002047B116F8011BA868A0470028BF
:10133000A860F2D14FF0FF30F2BD000000000000C5
:10134000000000006E616E004E414E00696E660046
:10135000494E46003000F8B504460D4616461F4675
:1013600000F0E7FD3B4632462946204601B0BDE885
:10137000F04000F0F4BD0268531C03601170704728
:101380000278C9B28A421AB11CBF10F8012FF9E7DE
:1013900018BF00207047FEE700F10103810704D069
:1013A00010F8011B89B18107FAD10268B2F101314D
:1013B000914311F0803F04BF50F8042FF6E710F876
:1013C000011B11B110F8011BFBE7C01A7047FEE7C3
:1013D000C9B2830706D0521E22D310F8013B9942AE
:1013E000F7D11FE0083A13D302F1040241EA0121C8
:1013F00041EA014150F8043B121F21BF4B40A3F1C9
:10140000013C2CEA030C1CF0803FF3D0C9B2001F52
:10141000083210F8013B521E28BF91EA030FF8D89A
:1014200018BF0120401E704780B500F082FD0120EA
:1014300002BDFEE770B5054605F10F00C408C046C1
:10144000C046E400A54232D2082C04D2082402E0AF
:10145000083000F091F82248026811000CD1011DFB
:101460000A6802B31368A34238BF111DF8D310E015
:101470001D68A5420DD2191D0B68002BF8D112680A
:10148000011D00E0191D0B6893420CD01D68A54298
:10149000F8D361B10D682A68A2F10803A3420AD209
:1014A0006A680A600FE000F07DFD0028D0D1C046D8
:1014B000C046002070BD63190B60121B6E685E6031
:1014C0000B681A602C60096800291DBF4A68002A51
:1014D000091D00210160C046C04605F1080070BD2D
:1014E000780C002070B504460D46164600F021FD2C
:1014F000324629462046BDE8704000F023BDFEE795
:1015000062B38B0708D0521E11F8013B00F8013B73
:1015100000F024808B07F6D1830740F0208000BFC5
:10152000103A07D330B4B1E83810103AA0E83810B8
:10153000F9D230BC530724BFB1E80810A0E8081066
:1015400044BF51F8043B40F8043BD20724BF31F8B4
:10155000022B20F8022B44BF0B7803707047083A27
:1015600007D3B1E80810083A40F8043B40F804CB30
:10157000F7D25307E4E7FEE700B9704738B5A0F1AA
:1015800008042068082833D310F0070F30D1C04674
:10159000C0461848416809B18C4203D2616044607A
:1015A00017E019464B680BB1A342FAD30B685D18DC
:1015B000AC421BD3A54204D12268D2180A600C4663
:1015C00007E04A681AB123681B199A420ED3626079
:1015D0004C60616851B1226813198B4206D1002317
:1015E000036008688018206048686060C046C04694
:1015F00031BD0000780C00201B4213D1094236D1C6
:101600002AB18446B0FBF2F002FB10C2704700F032
:10161000DFBCFCD30022002370470B000200002136
:1016200000207047904271EB030CF6D370B5B1FA0D
:1016300081F4B3FA83F52C1BA340C4F1200532FAE0
:1016400005F63343A2405FF00046E64002E05B0847
:101650005FEA3202841A71EB030524BF2046294653
:101660007641F4D302000B003000002170BD012A46
:10167000CFD970B5140C20D0B1FA81F4B2FA82F54A
:10168000C4F120046419B4F12006D6D3B2405FF04F
:101690000044F440002502E052085FEA3303C61A12
:1016A00071EB020E24BF3046714664416D41F3D3A5
:1016B00002000B002000290070BD0C46B1FBF2F1C6
:1016C00002FB11452D0445EA1045B5FBF2F402FB7F
:1016D000145580B240EA0545B5FBF2F002FB10520A
:1016E00040EA044070BD30B4436803F00042012179
:1016F0001B031B0B436004BF0368002B08D10DE0E4
:101700000368DD0F45EA440444605B000360491E42
:101710004468E302F4D523031B0B436043681A4378
:101720004260084630BC70474FF4001C1CEB410F70
:1017300094BF1CEB430F09E041EA030C50EA4C0C48
:1017400052EA0C0C03D2994208BF9042704714BF72
:101750008B4282427047FEE74FF4001C1CEB410FA6
:1017600094BF1CEB430F09E041EA030C50EA4C0C18
:1017700052EA0C0C03D28B4208BF8242704714BF5E
:10178000994290427047FEE770B504460D46606886
:10179000C0F30A5040F2FF71884207D1606800032D
:1017A00004BF2068002817D0022070BD20B9204651
:1017B000FFF799FF012868DA012D0FDB40F2FF7176
:1017C000091A8D420AD3606800284CBF9FED300B88
:1017D0009FED310B84ED000B012070BD4142A94209
:1017E000616806DA6FF31E51401941EA00506060EB
:1017F00042E0401E63684519012205F1350062F39D
:101800001F53352801F00041636003D3616000205D
:10181000206070BD002215F11F0F04DA22682360DA
:10182000002020356060684214D0521E2568924125
:10183000C0F12003D2439D4045EAD272256825FAC3
:1018400000F6656805FA03F333432360636823FAFF
:1018500000F5656060680843B2F1004F606003D82E
:101860000DD12078C0070AD52068401C2060206870
:1018700028B96068401C60604FF0FF3070BD606840
:10188000884204BF20680028F6D1002070BD00BF48
:10189000000000000000F0FF000000000000F07FEA
:1018A000F446400D40EAC120490006D200F014F889
:1018B000004248BF6FF00040604700F00DF84FF065
:1018C000004188428CBF084640426047400D40EAD4
:1018D000C120490080F00D8040F00040490DA1F585
:1018E0008061491C05D4D1F11F0154BFC840C01705
:1018F00070474FF000007047010040F10980F44646
:10190000404200F005F851F000416047010000BF7F
:1019100009D0B0FA80F18840C91CC1F5846109057D
:1019200001EBD02140057047F0B44FF0004591EA3B
:10193000030F44BF6B4000F04DBB00BF841A71EB36
:10194000030604D26E40001BB141121973414FF4DB
:10195000001C1CEB410F34BF7CEB430684E00C0DF4
:10196000A4EB1356362E7DDC012E43DC45EAC3235F
:1019700043EA525312BFD20292025B08240545EAA1
:10198000C12141EA5051D2EBC020994125D407D161
:10199000B0FA80F610FA06F164D00020203608E094
:1019A000B1FA81F6B140C6F1200220FA02F21143E9
:1019B000B0404FEAF474B4EB465434F001064FEAF9
:1019C00074040AD8D6F50016760D04F00044F040F1
:1019D00061FA06F25040F1404840C00A40EA4150E6
:1019E00021F0004128BF5FEA500550F1000044EBB0
:1019F000D12137E045EAC323DB0A45EAC121C90A00
:101A0000B6F120050EDD42EA0242120CC5F12006B5
:101A100003FA06F6EB4042EA06056D42984161F191
:101A200000010DE062FA06F5F240554063FA06FC4B
:101A300082EA0C02F3405A406D42904161EB03018F
:101A400011F4801F05D1641E620502D06D00404173
:101A5000494121F48011430875F1004350F1000021
:101A600041EB0451F0BC70471CEB410F15D223F041
:101A7000004352EA43060BD04FEA4C0CBCEB410F3B
:101A800004D80C0D661E342EB7DDEBE7801A9941A1
:101A900050EA410608BF0021E4E708BF1CEB430FF2
:101AA00028BF6FF00001DDE7B0B581EA030C0CF050
:101AB000004C40F2FF7515EA11541DBF15EA13578B
:101AC000AC42AF4239E0E41923EA455343F48013B2
:101AD000C90241F0004141EA505EC7021100A7FB74
:101AE000020200284FF00000EEFB01204FF0000141
:101AF000E3FB072118BF42F00102401800214941D1
:101B0000E3FB0E01A4F580640F0302D252004041B2
:101B1000494154F101046CDD470872F1004250F173
:101B2000000051EB0451A1F580115CBF41EA0C01AA
:101B3000B0BD4CEA05510020B0BD05EA1357AC42D8
:101B400014BFAF4241E050EA410E1CBF52EA430EBF
:101B500002E061460020B0BD24423C441BD15FEA54
:101B6000070EF6D0090302BF01460020AEF1140EA5
:101B7000B1FA81F7AEEB070401FA07FE0C37C7F1A3
:101B8000200100FA07F7C8404EEA000E23EA455349
:101B900043F48013A2E733F00043B3FA83F704BFA2
:101BA000B2FA82FE77440B3FE41BB7F1200E2FBF41
:101BB00002FA0EF3BB40C7F1200E22FA0EFE38BF28
:101BC00043EA0E03BA40641C82E750EA410E14BF98
:101BD00052EA430E6FF000014FF4001717EB430F6A
:101BE0008ABF194617EB410FB5E74CEA05510020B3
:101BF000B0BDD4F10104B4F120070FDAC4F120071D
:101C0000520828BF42F0010210FA07F501FA07F75F
:101C1000E1BF2A43E0403843E1400FE0352C98DC37
:101C2000C7F1200452EA400220FA07F218BF42F03E
:101C3000010231FA07F0A1400A43002172F100428B
:101C400050F1000051EB0C01B0BDFEE72DE9F04171
:101C500040F2FF7581EA030C0CF0004C15EA1154B8
:101C60001DBF15EA1357AC42AF42E9E0BC41C1F3D6
:101C70001301C3F31303801A994143F4801304D270
:101C8000641E4000494180185941C90241EA50513F
:101C9000B1FBF3F603FB1611A2FB0675D7EBC020D0
:101CA000A94102D2761E80185941C90241EA505119
:101CB000B1FBF3FE03FB1E11A2FB0E75D7EBC02098
:101CC000A94103D2AEF1010E80185941890241EABF
:101CD0009051760546EA8E2EB1FBF3F603FB161102
:101CE000A2FB0675D7EB8020A94102D2761E801890
:101CF0005941C90241EA50514EEA060EB1FBF3F6D2
:101D000003FB1611A2FB0675D7EBC020A94102D236
:101D1000761E80185941C90241EA5051B1FBF3F7D0
:101D200003FB1711A2FB0735D3EBC020A94167F1D4
:101D300000070CBF004247F0010766F3D5274FEAC2
:101D40001E31B80814F5806414DDBD0775F100423A
:101D500050EB0E5051EB045111F5801F5CBF41EA6E
:101D60000C01BDE8F0814CF07F6141F0E0410020C2
:101D7000BDE8F081BD076D0840EA0E5041F48011C6
:101D8000D4F10104B4F120060ADAC4F120060200FD
:101D9000E04001FA06F3E1401843B24015430EE07B
:101DA000342C14DCC6F1200445EA40056D0820FA05
:101DB00006F2154321FA06F0A1400D43002175F10A
:101DC000004250F1000051EB0C01BDE8F081002011
:101DD0005FEA0C01BDE8F081CFB992185B41B3FA1C
:101DE00083F704BFB2FA82F6BF190B3FB7F12006A2
:101DF0002FBF02FA06F3BB40C7F1200622FA06F60F
:101E000038BF3343BA401CB1E419641E2FE77F4248
:101E100031F00041B1FA81F404BFB0FA80F6A419A0
:101E20000B3CB4F120062FBF00FA06F1A140C4F12B
:101E3000200620FA06F638BF3143A0403C1B16E7C7
:101E4000AC421ABF05EA1357AF4214E050EA41060C
:101E50001CBF52EA4306BFE750EA410730466146DD
:101E60001CBF41EA0551BDE8F08152EA430C08BFAE
:101E7000C143BDE8F08100204FF4001616EB410F7E
:101E800098BF16EB430F08BF16EB410F24BFC143A9
:101E900005E016EB430F0CBF61464CEA0551BDE867
:101EA000F081FEE780B51348C046C0460FF24C02F1
:101EB0000FF244010160426241600FF2440282630A
:101EC00081600FF24402C160016141618161816200
:101ED000C16201634163C2630164416401BD10B525
:101EE0000448C046C0460446206808B9FFF7DAFF38
:101EF000204610BD00000020000000002E00000061
:101F000066616C7365000000747275650000000006
:101F100091FBF2F303FB1211C0E900317047FEE7B9
:101F200010B50446DFF81800C046C04650F824003B
:101F300010BD80B5DFF80800C046C046806902BD0C
:101F40009000002030B430B90FF24800D0E90045CD
:101F5000C2E900451BE00170012030BC704730B47D
:101F600031B90FF23800D0E90045C3E900450EE071
:101F70001AB930BC6FF00100704708B10A780280CE
:101F80000978481E804130BCC043C00F7047002014
:101F900030BC70470000000000000000000000009E
:101FA000000000000749086808B100207047064893
:101FB000C008C00008600549C908C900091A0160C5
:101FC000704700BF8C0C0020E7140020E0160020B2
:101FD0007047FEE7841A71EB030603D2001BB14180
:101FE000121973414FF4001C1CEB410F34BF7CEB02
:101FF000430443E00C0DA4EB1356352E50DC45EAA8
:10200000C323DB0A45EAC121C912B6F120050DDD63
:1020100063FA05F6EB4086EA0305124218BF45F065
:102020000105C01851F100010CD213E062FA06F567
:10203000F2405540F3415A40B340F3405A408018B3
:10204000594107D349085FEA30005FEA350528BFE8
:1020500045F0010501F58011420875F1004250F18B
:10206000000041EB0451F0BC4FF4001C1CEB410F8D
:1020700038BF70470020090D090570471CEB410F60
:1020800010D252EA43060BD0BCEB410F05D80C0D21
:10209000AB43661E342EB5DD02E0AB4380185941D8
:1020A000F0BC7047F0BC704738B51446DFF8D05329
:1020B00000226A60DFF8CC231268C2F380021AB9EA
:1020C00063B92A78002AFCD00A46214600F01FFD99
:1020D00058B1002020804FF0FF3032BD2A78002A0E
:1020E000F2D16A689342F9D2F3E7287032BD38B56D
:1020F00014461D4600F0F1FC38B9049A4FF47A7387
:1021000029462046FFF7D0FF08B14FF0FF3032BD1F
:1021100030B5ADF5077D044645A800F040FB00F062
:10212000D1FA03A80FF634010CC90CC00FF6340124
:102130000A6802A8026000F03BFDA078000624D4E3
:1021400000F0B5FA45AA052103A81CE005A84FF444
:10215000807100F0DBFD0020ADF8060045A8A978ED
:102160000DF106030DF11702C01C00F027FD002041
:102170008DF8140005A800F0E0F845AABDF80600A7
:10218000C11C89B205A8FFF7B2FF00F022F898B988
:102190009DF8140145AD002804BF68780028D5D00B
:1021A0009DF814116878602902D10828EDD103E068
:1021B000612908BF0628E8D1A078000606D400F0FF
:1021C00076FA45AA00F0C2FB00F003F80DF5077D92
:1021D00030BD4FF4FA6301AA4FF4817145A863E75B
:1021E00030B5ADF50D7D04460BA84FF4807100F0BD
:1021F0008DFD0020019006A80FF26C710CC90CC077
:102200000FF26C710CC904A80FF26C710CC003A81A
:102210000A680FF26871026002A80A680FF2607122
:10222000026008A82CC92CC0607800F076FD6078A8
:1022300003284BAD28D100F08CF8072104A8FFF744
:1022400056FF00F08CF89DF82C01612801BF6878DA
:102250000828E878002867D10DF5997000F094FD02
:1022600012E000208DF82C000BA800F066F84BAAB5
:10227000BDF80600C11C89B20BA8FFF738FF00F0BB
:10228000AEF84BA8FFF710FFA9784BA80DF1060395
:102290000DF12F02C01C00F05EFDBDF80600002805
:1022A000DFD16078012804D0022814D0042825D07A
:1022B0003AE000F0D8F800F04CF80A2108A8FFF73F
:1022C00016FF00F04CF89DF82C01002804BF687838
:1022D0000028EED028E000F0C6F800F03AF805211A
:1022E00006A8FFF704FF00F03AF89DF82C01D8B9D2
:1022F0006878C8B9A8781128EDD015E000F0B3F8D7
:1023000000F027F8032103A8FFF7F1FE00F027F8FB
:102310009DF82C016F2804BF6878112801BFA878A8
:102320000128E8780128E9D000F013F800F00EFB4E
:1023300000F015F80DF50D7D30BDBDF80610090A49
:1023400041704FF48173BDF80610817001A80090B0
:10235000704701A800904FF481734BAA70474FF467
:102360007A7301AA4FF481714BA89DE62DE9F041E3
:10237000ADF5047D04460D4690461F4600F00EFA6A
:1023800000F0A0F98DF80C01002143A82A46417005
:1023900085702146C01CFFF7B3F801A80090E91C26
:1023A0004FF4817300F0CFF900F019F802A8FFF79D
:1023B0007BFE9DF808104FF0FF3602A800298278B6
:1023C00002BF4178002900263A700DF10B0140460A
:1023D000FFF796F830460DF5047DBDE8F0814FF427
:1023E000FA6301AA4FF48171704710B5282818BF0D
:1023F0002928C6B033D100F058FB04A800F0CFF96B
:1024000000F060F903A80FF24C510A680FF248512E
:10241000026002A80A6802600A2404E02046441E02
:10242000E8B100F020F800F042F904AA042103A862
:10243000FFF75DFE0028F1D100F039F904AA03216D
:1024400000F085FA002804BF9DF81000402806D14E
:1024500004A84178012904BFC078002801D04FF0BA
:10246000FF3046B010BD4FF4FA7000F035BB0449A0
:1024700001200870704702484168491C416070475C
:10248000600C0020100500502DE9F041ADF51C7DD9
:1024900004461AA800F083F900F014F900250FF2A1
:1024A000EC400FF2EC4100880A680FF2E841ADF809
:1024B000060004A802600BA80CC90CC00FF2DC4196
:1024C0000A680FF2DC4103A8026009A80CC90CC01D
:1024D00011A80FF2D4412422FFF722F80FF2EC41A9
:1024E0000A680FF2EC4102A802600DA81022FFF763
:1024F00017F80FF2EC410CC907A80FF2EC410CC021
:102500000CC905A8002C0CC000F0CC80042C1AAE1D
:1025100010D100F0D1F8032100F019FA002804BF0F
:102520009DF868004F2846D17078022804BFF078E3
:10253000002840D1E00705D5032204A95CA8FEF7D6
:10254000DFFF012514F0020809D05BA805EB450365
:102550001818032203A9001DFEF7D2FF6D1C6007A7
:102560000AD5EDB25BA805EB450318180F220DA99B
:10257000001DFEF7C5FF6D1D5BAFEDB215B30DF18C
:1025800006005BA902780A704FF4817342784A70A2
:1025900005EB4500401CB870FD7001A800901AAA18
:1025A000B878C11C89B25BA8FFF7A1FD002804BF61
:1025B0009DF86800412872D17078002804BFF07837
:1025C00000286CD10025E00706D55CA805220BA9E0
:1025D000401CFEF795FF0125B8F1000F09D05BA85C
:1025E00005EB85031818052209A9401DFEF788FF91
:1025F0006D1CEDB2F5B1052207A95BA8FEF780FFBF
:1026000005EB8500801CB8703D7100F050F8B8787B
:10261000C11C1AAA89B25BA8FFF769FD002804BF94
:102620009DF8680041283AD17078012804BFF078FD
:10263000002834D1E10705A802D5817920318171C4
:10264000B8F1000F02D0817940318171807988B171
:1026500000F032F8072105A8FFF749FD002804BF64
:102660009DF8680040281AD17078022804BFF078DD
:10267000002814D1B8F1000F14D000F01DF8222169
:1026800011A8FFF734FD002804BF9DF8680040281A
:1026900005D17078022804BFF078002802D04FF0EE
:1026A000FF3000E000200DF51C7DBDE8F08101A8A1
:1026B00000904FF48173704701A800904FF481732C
:1026C0001AAA70470020ADF80400704730B5ADF588
:1026D000037D04460D4600F061F80020ADF80600C9
:1026E00043A90FF20C300088ADF80400CD7001A8AA
:1026F00002780A7042784A706800421C8A70002191
:1027000007E043AA02EB41020B5D1371491C012350
:102710005371A942F5DB0DF1060100914FF481736D
:10272000011D00F010F8002804BF9DF808004128A2
:1027300006D102A84178032904BFC078002801D03F
:102740004FF0FF30FFE002AA89B243A8CFE400B502
:10275000C5B003A800F023F8FFF7B4FF02A80FF2FA
:10276000942109E000B5C5B003A800F018F8FFF700
:10277000A9FF02A80FF280210A680260FFF797FF05
:1027800003AA00F0E3F828B900F085F803A8FFF7E2
:102790008BFC08B14FF0FF3045B000BD02A84FF4EC
:1027A000827100F0B3BA30B50FF25021C7B00446C1
:1027B0000CC904A80FF24C210CC00CC902A84FF49C
:1027C00082710CC006A800F0A1FAFFF77BFF06ADEE
:1027D000002300F053F89DF818006128F8D16878BC
:1027E000052843D00328F3D1002020702879607099
:1027F0006879A07004E000F04EF806A8FFF754FCDA
:102800009DF81800612804BF68780328F3D1BDF84B
:10281000041006A8081810F8010C0228EBD0607804
:10282000042809D100F030F804A8FFF760FC9DF8F7
:10283000180041280AD10FE005281DD100F024F826
:1028400000F085F89DF81800412805D06878042824
:102850001CBFE87800280FD1642300F00FF89DF822
:10286000180061281CBF6878052805D128792070D8
:1028700068796070A879A07047B030BD01AA4FF4A4
:10288000817106A8FFF710BC01A800904FF4817376
:1028900006AA062170474FF47A7301AA4FF481719A
:1028A000704730B50128ADF5037D07D0022847D029
:1028B000042804BF0846FFF793FC44E042A8FFF752
:1028C0006EFF0020ADF8060002AC00F00DFB42AD3B
:1028D00024E0002804BF687800281FD1ADF8040068
:1028E00042A8A97801AB0DF10B02C01C00F000FB5F
:1028F00000208DF808004FF48173BDF80400000A31
:10290000607042AABDF80400A0700DF106000090AE
:10291000BDF80400C11C89B200F019F84FF4FA6345
:102920000DF106024FF4817142A8FFF7BDFB50B9CB
:102930009DF808016128CCD168780628EED102E024
:102940000846FFF7E5FB0DF5037D30BD042102A825
:10295000FFF7CDBB200001012001000000000200B4
:10296000000000002106010300000230000000000A
:1029700021080412FC0001002F11000021060103B0
:1029800000000778000000000000000021000000A7
:10299000040202000103000104000000050303001B
:1029A000010300010500000020021F02290D4666F8
:1029B0006D010111030200010401FA610D46666D0B
:1029C000010111030200010401FA00002F020000BE
:1029D00001010102010103010104010280018000E3
:1029E0002101070001000000200204013201000063
:1029F0002103000021060103210601002104030137
:102A00000402000021040301050300004FF47A7161
:102A100048433ED04D494E4A096800BF00BF00BF41
:102A200000BF00BF00BF00BF00BF91422FD000BF5A
:102A300000BF00BF00BF00BF00BF00BF00BF00BF9E
:102A400000BF00BF00BF00BF00BF00BF00BF00BF8E
:102A500000BF00BF00BF00BF00BF00BF00BF00BF7E
:102A600000BF00BF00BF00BF00BF00BF00BF00BF6E
:102A700000BF00BF00BF00BF00BF00BF00BF00BF5E
:102A800000BF00BF00BF00BF00BF00BF00BF401EAF
:102A9000C3D17047202832BF2E4900F01F002E49B5
:102AA000012202FA00F0086070472C49087080B5D6
:102AB0002F20FFF7EFFF0A20FFF7A8FF28494FF468
:102AC000004008600A20FFF7A1FF2F20FFF7E2FF78
:102AD000BDE802400A2099E798E710B582B008B136
:102AE000022902DA4FF0FF3016BD00220092CBB26D
:102AF00002461A4801780FF26C0000F077FC044699
:102B00000A20FFF783FF200018BF012016BDF8B58B
:102B1000124F0FF250060D46044639780323224621
:102B2000304600F071FC50B9A07850B1C01C28802C
:102B3000A3783978E21C304600F066FC18B1012019
:102B4000F2BD032028800020F2BD00009402002086
:102B50000024F4000805005008080050900C0020E4
:102B60000C080050003000400001000001B49DF846
:102B700001009DF802209200C0F3810352FA83F213
:102B80000A7080019DF8002050FA82F0487001B070
:102B90007047F129594B04DA98605980DA600120B6
:102BA000704700205880D8607047544908617047CA
:102BB0005248418801B1012101707047F8B50646BD
:102BC0001D4600202880144630784C4F81088DF82F
:102BD000001000F00300717880008A0950FA82F03A
:102BE0008DF8010001F03F008DF802009DF8010012
:102BF000042804D006282CD00C280DD04CE09DF8D9
:102C00000000042804D13869002845D0062000E0DF
:102C1000072000F075F86DE0F078102804BF3079D7
:102C2000022839D13A69100003D0317A06F109003F
:102C3000904700982146FFF799FFB0780009401CA3
:102C4000A070062207F11801E01CFEF759FC0920CC
:102C500051E0052038700C2000F052F80020A070E0
:102C60001020E0700220207100206071A071E071DE
:102C700004F109007A882272B968FEF741FC79886C
:102C800001F10900288006203870FA68100033D05E
:102C9000B868BDE8F8401047387801281CD00228F1
:102CA0000FD0032802D00528D5D019E007F1140071
:102CB00001782170417861700220288004203870EA
:102CC000F1BDB888401CB88080B2012804BF032041
:102CD00038704FF47A7005E00020B8800220387018
:102CE0004FF4FA70FFF7F8FE07F116000178217033
:102CF0004178617002202880F1BD00004802002068
:102D00008DF801002146009830E7FEE7002200F030
:102D100049BCFEE713490860704780B5012806D01A
:102D200015D303280BD006D304280CD00FE000F0F5
:102D300053FC0D480CE000F005FD0C4808E000F0E5
:102D40001DF80B4804E000F0A3FD0A4800E0002055
:102D50000949086001BD38B5074C2468250018BF33
:102D6000A04731BD880C0020E53500005137000038
:102D7000A92D00009D380000840C00203E48002151
:102D800001753E490161704738B504463A4D082245
:102D900021462846FEF7B4FB214605F11A00BDE89E
:102DA00038400822FEF7ACBB70B515461E4600221F
:102DB00032800918304C227D1AB1022A26D007D35E
:102DC00070BD102200F05FF81020308001201BE061
:102DD00011F8011C002904BF417807294AD1817AE2
:102DE000002904BFC17A002944D1807EA081F12846
:102DF00040DA002060811022012000F043F8012019
:102E0000E873102030800220207570BD11F8011C7D
:102E1000002904BF417807292CD1817A002904BFF9
:102E2000C17A002926D1618922698B18A289521A98
:102E3000112A0DDA00F10D011846FEF761FB10486A
:102E40000268100016D0A1892069BDE870401047C3
:102E500000F10D0110221846FEF752FB6089103078
:102E600060811022207A401C00F00CF8207AE87370
:102E70001020308070BD000020020020400900209A
:102E8000880C0020207204F118012846FEF738BB98
:102E900070B54A4C0B0061681D46164606D1628823
:102EA000130A03704270801CB21E08E0012D04D189
:102EB000628800F8012B721E01E06918891EFEF776
:102EC0001FFB618870198A1C904206DBA268100003
:102ED00003D06068BDE87040104770BD374B586044
:102EE00059809A600120704734490020087070476B
:102EF0002DE9F0419046314E07461D460C2206F161
:102F0000140100F0B9FD10B92880012015E03478D3
:102F1000072206F13001384600F0AEFD20B9012C41
:102F20003ED12880022008E0072206F13801384609
:102F300000F0A2FD18B928800320307024E002229E
:102F400006F10C01384600F097FD48BB022C08D171
:102F50000F2206F120014046FEF7D2FA0F2028800A
:102F600012E0032C1CD1B878F9783F7901EB0021ED
:102F7000708889B211FA80F0801CB84210DB3A46A2
:102F80004046FFF785FF2F8006F10E002988027862
:102F900041440A7042784A702888801C28800BE0DF
:102FA00006F11000017888F80010417888F80110C7
:102FB0000220288000203070BDE8F0814001002010
:102FC00081B000220A5008580090009801B0704764
:102FD000085800B10120C0B2704700F2445001E02F
:102FE00000F23450016042607047202832BFDFF8A1
:102FF000701500F01F00DFF86C1507E0202832BFC5
:10300000DFF8641500F01F00DFF86015012202FAF6
:1030100000F0086070470000002840D0DFF850152D
:10302000DFF85025096800BF00BF00BF00BF00BF28
:1030300000BF00BF00BF91422FD000BF00BF00BF44
:1030400000BF00BF00BF00BF00BF00BF00BF00BF88
:1030500000BF00BF00BF00BF00BF00BF00BF00BF78
:1030600000BF00BF00BF00BF00BF00BF00BF00BF68
:1030700000BF00BF00BF00BF00BF00BF00BF00BF58
:1030800000BF00BF00BF00BF00BF00BF00BF00BF48
:1030900000BF00BF00BF00BF00BF401EC3D17047CC
:1030A00038B50446DFF8D054216840F20C6000F0D7
:1030B00034F82068FFF799FF6068FFF796FF2168F2
:1030C00040F20D6000F029F8002500F02CF860684F
:1030D000202832BFDFF8A41400F01F00DFF8A0148E
:1030E000096821FA00F2D00701D56DB931BD206819
:1030F000FFF784FF00F017F82068FFF776FF00F075
:1031000012F86D1C092DE2DB6068FFF777FF00F015
:103110000AF86068BDE8324067E745F82100616859
:1031200045F821007047042076E7F8B50C460746BD
:10313000DFF850043979282515FB010505F1220631
:10314000307808B10820F2BD2A606B60A860F0708A
:10315000B070A07B7071607B10B12046FFF7A0FFBC
:10316000DFF81404226840F20C6140F82210626813
:1031700040F8221038686168236800F5A162136086
:103180005160A168D161296821B1217B000300163B
:1031900000F0A4FC012030700020F2BD0279DFF8BD
:1031A000E4130068282313FB02110622C0F800254F
:1031B000022081F82200704700F5A86011F001029A
:1031C00018BF012211F00201026118BF0121016044
:1031D00070472DE9F84F044608208DF80200174685
:1031E0004FF48270ADF800000D46786800F0604042
:1031F000B0F1005F1E464FF000086DD105F541713A
:103200004FF0FF30486094F8240020B1A068C5F862
:1032100004031120CEE006F01400401E8041C00FD0
:1032200084F8240004F10C000ECF0EC0300904F124
:10323000240100F001000C3F48704FF4827178784F
:10324000DFF84493C5F888054FF4807A00F0BFF8A2
:1032500000F0BBF831462846FFF7AEFF387800286B
:1032600040F2022B43D002282ED056D3032862D13D
:10327000B86800F06040B0F1005F2DD1C5F800A241
:1032800000F09FF84FF4A87100F0A1F84FF4B0716E
:1032900000F09DF84FF4A47100F099F80120286225
:1032A000A8604FF4A8712846FFF792FE0028F8D0D6
:1032B0004FF4A87100F08BF8FA78B9682846FFF748
:1032C0008CFEC4F8089038E000F07BF8B96801F093
:1032D0006040B0F1005F01D010206BE0FA78284622
:1032E000FFF77EFE4FF4845000F066F825E000F012
:1032F00068F8B0060CD5C5F800A2C4F808904FF4E1
:10330000A47100F064F84FF4A470ADF800000FE071
:103310004FF4007000F050F80AE0BA787968284657
:10332000FFF75EFE4FF4805000F046F88DF8028003
:103330000120286201E04FF00708300706D43878F2
:10334000032803D09DF80210012048512068B8B12D
:10335000700744BF4FF40070A060A068C5F8040374
:1033600027E04FF492712846FFF732FE40B100F09B
:103370002CF80120286268614FF48270ADF80000DB
:103380002846BDF90010FFF723FE0028E9D0D5F844
:10339000C404C5F8C404002184F8241048B14FF0D7
:1033A0000308810748BF48F20128400748BF48F298
:1033B00002284046BDE8F28FC5F80002C4F808B004
:1033C0007047BA787968284607E64FF49271284624
:1033D000F6E538B513460A4601680079694C282598
:1033E00015FB004001B0BDE83040F2E6FEB500AC90
:1033F000002500262F46E0C400F015F808990029A2
:1034000014BF202200220AE0FEB50FF28415B5E8B1
:10341000C01000ACA4E8C01000F005F8002200A91C
:10342000FFF7D7FFFEBD8DF8011001928DF8023035
:1034300070472DE9F0430C4685B04FF49271064673
:10344000FFF7C6FD06F5417890B14FF4927100F098
:103450007DF800F07DF858B9A068C8F80400022093
:10346000A060A068C8F8000001203062706162E0CE
:1034700000F06EF8002806F2C44704F123054FF06F
:10348000FF392FD04FF4827100F060F800F056F849
:10349000287878B1207B01280CBFB86FD6F84C058E
:1034A0008DF80600207B02280CBFB86FD6F84C05BB
:1034B0008DF807004FF4B07100F048F84FF4AE718A
:1034C00000F044F8A87808B1287828B10020C6F8A0
:1034D0000002A060C8F804903868386081071DD5E4
:1034E00001201FE04FF4A47100F030F8207B28B9D0
:1034F00000F024F8A8780028EED1E8E74FF4007037
:10350000C6F8000240F20220A060C8F80490A0684B
:10351000C8F800000120B06030620CE040074CBFEA
:10352000022000208DF80000A87800B9687061685A
:10353000226800A8904705B0BDE8F08304F10C01B3
:10354000B1E80C1001A8A0E80C107047304637E530
:103550004FF4827130463BE50A490C4869E70000A8
:1035600008050050080800500C0500500C080050D9
:10357000940200200024F4000007005010050050C1
:1035800010080050080C0020000204000030004029
:1035900001000000000000000000000062F30F22A4
:1035A00062F31F4200B500BF1300964694461039DF
:1035B00028BFA0E80C50FAD85FEA417C28BF0CC0B5
:1035C00048BF40F8042BC90728BF20F8022B48BF8A
:1035D00000F8012B00BDFEE74E48002101744E4962
:1035E000C1607047F8B514461D4600222A800B18AA
:1035F000484F4A4E3A7C002A05D0022A29D00BD3E4
:10360000032A5BD0F1BD072207F1140100F08FF807
:103610000720288001204FE0072904BF13F8011C70
:10362000002976D101783970042241787970811CA3
:10363000B81CFDF765FF032207F11C0100F077F8C5
:103640000422B91CE01CFDF75BFF07202880022044
:1036500032E07B2901BF13F8013C002B837AE12B78
:1036600057D10E231A5C03EB000C032A9CF80120AF
:1036700005D013449B1CDBB29942F3DAF1BDA1F1F2
:103680001100C01A801EC0B2FB687A81904205DB2F
:1036900000F046F8306800283BD022E0388102462E
:1036A00000F03EF81020B8710A2200F03EF800F059
:1036B00041F80E20288003203874F1BD0A2904BF88
:1036C00013F8011C002924D13989FB687A89CB18A9
:1036D000521A082A0BDA411C1846FDF711FF306810
:1036E000B8B17989F8683268BDE8F8401047411CE4
:1036F00008221846FDF704FF3889083038810A226D
:10370000B879401CB87100F010F800F013F80E20E2
:103710002880F1BDF401002040090020880C002021
:103720000CF102011846FDF7EBBE07F1200120461F
:10373000FDF7E6BEB87960700422B91C04F10A00F6
:10374000FDF7DEBE4B48002101704B49C160704758
:103750002DE9F04114461D460022464FDFF81C813A
:103760002A800A183B782BB1022B18D009D3032BDF
:1037700055D07CE030202070032000F081F801203B
:103780004BE0112901BF12F8011C00290078E12843
:103790006DD130202070042000F072F83DE0112936
:1037A00004BF12F8012C002A61D14FF0000E0EEB7D
:1037B00000063278032A07D072787244921C5FFAAE
:1037C00082FE7145F3DA52E07078FF2803D1B078B9
:1037D000F27802EB00203881481E3A89FB68A0EBA2
:1037E0000E00801E904207DBB11C00F04DF8D8F8A7
:1037F000000000283BD025E01020A0EB0E00821E28
:10380000FA80B11C92B200F03FF8082038713020E5
:103810002070082000F034F80320387027E01129C8
:1038200004BF12F8011C002921D1F988FB683A89EC
:10383000CB18521A102A0CDA014600F025F8D8F8F5
:103840000000A0B13989F868D8F80020BDE8F0413F
:1038500010470146102200F017F8F8881030F88061
:1038600030213879001D3871217000F009F8BDE869
:10387000F0810000500C002040090020880C00203E
:1038800060700220288070471846FDF739BEFEE7B9
:103890006A48002101756A49016170472DE9F041CC
:1038A000074688461D460020B8F1030F14462880BD
:1038B000C0F2C180614E317D08EB0700801E0729F0
:1038C00065D8DFE801F0040A18242E616D8B00F042
:1038D000C1F80C20288001207EE000F0C7F810B964
:1038E00000F0B2F80FE000F0B5F80020E0720C2014
:1038F0002880022070E000F0B9F8002847D100F0DD
:10390000A3F80020E07007202880032064E000F086
:10391000ADF800283BD100F0A3F805202880042052
:103920005AE000F0A3F8002808BFB8F1110F2ED11B
:10393000B87830700722F878397901EB0020708070
:10394000B979787901EB0020B080787AB071B87AD3
:10395000F071397BF87A01EB0020308106F12C01FF
:10396000787BB072B87BF0722046FDF7C9FD3078E5
:10397000102804BF0020E070B0796071F079A07168
:1039800007202880052027E000F070F8002852D199
:1039900000F066F8052028800220207106201BE038
:1039A00000F064F8002846D13878797801EB0020DF
:1039B000F081F089F1283EDA0020B08100F050F863
:1039C0000220E0707188F0894A1E8242B8BF481E0A
:1039D000207105202880072030752CE000F046F883
:1039E00048BB3069B389A8F1020239461818FDF7BF
:1039F00087FDB089A8F102010818B081F189B0896A
:103A0000884207D10F480268100014D03069BDE821
:103A1000F041104700F024F8B089801CE070F18973
:103A2000B0897288531E0E1AB342B4BF501E081AD2
:103A3000207105202880BDE8F08100008001002071
:103A400040090020880C0020072206F124012046AE
:103A5000FDF756BD0C2206F118012046FDF750BDBA
:103A6000052206F134012046FDF74ABD022206F187
:103A7000160100F001B8FEE70300002013F0030F69
:103A800009D0521E22BF13F8010B11F801CBB0EB85
:103A90000C00F3D07047121F22BF53F8040B51F8EB
:103AA00004CB6045F7D0121D0AD200BA9CFA8CFCF8
:103AB000B0EB0C0038BF6FF0000088BF01207047EA
:103AC000521E22BF13F8010B11F801CBB0EB0C0012
:103AD000F6D0521C08BF10467047FEE710B54901EA
:103AE000020006D50A4B00F00F04E31803F8041C8B
:103AF00001E0084C01554109012200F01F0002FAC3
:103B000000F0054A42F82100044A42F8210010BDA5
:103B100018ED00E000E400E080E200E000E100E0F9
:103B20000EE016E0D0F80403084018BF0120C0B230
:103B3000704700F20C5082600160704712E000BFD5
:103B400081B000220A5008580090009801B07047D8
:103B500000BF085800B10120C0B2704700F20C50FD
:103B600002E000BF00F5A1600160826070470121A2
:103B700000F01F029140DFF8E026400942F82010D3
:103B8000704741EA420141EA830210B502992028B8
:103B900042EA012232BF4FF0A04400F01F00DFF8DC
:103BA000BC46039904EB800042EA0141C0F80017CB
:103BB00010BD00B583B000210191009101220023C6
:103BC000114606E000B583B00022019200920B4638
:103BD0000021FFF7D6FF07BD00B583B0002101919A
:103BE000009100230122F4E7202832BFDFF870168D
:103BF00000F01F00DFF86C16012202FA00F00860E6
:103C0000704738B50D460446286810F1010F04D0FE
:103C1000FFF7EAFF2868FFF7CCFF686810F1010F93
:103C20001CBF0021FFF7CEFF2279DFF83C16A86900
:103C300001EB4211097F00292168C1F82405687D44
:103C4000297D1CD000F039F8FFF788FF287D012876
:103C500032D1A86810F1010F1CBF0021FFF7B2FF9D
:103C6000E86810F1010F04D0FFF7BEFFE868FFF726
:103C7000A0FFAA68E9682068BDE8384071E700F055
:103C80001CF8FFF756FF287D012815D1A86810F110
:103C9000010F1CBF0021FFF795FFE86810F1010F2D
:103CA00004D0FFF7A1FFE868FFF783FFAA68E9687F
:103CB0002068BDE8384041E731BD08432168C1F8BC
:103CC0006C056A6829682068704738B50D4600F0B1
:103CD00081F880B120684FF48871FFF730FF00F061
:103CE000FEF820684FF49271FFF729FF00F07CF98D
:103CF000DFF8780508E000F051F920684FF4A27170
:103D0000FFF70EFFDFF868052168C1F804032946B4
:103D10002068BDE8344000030016FFF7DFBE0279DB
:103D2000DFF8441501EB4211097F0268002914BF36
:103D3000DFF83815DFF83C15C2F8081300680003F7
:103D4000001614E72DE9F04100F044F8002820683F
:103D500012D000F5A1614FF0FF324D68CE680F68B8
:103D6000D1F808801146FFF7F9FE4FF0FF322068C6
:103D70001146FFF7F6FE12E0D0F80C55D0F81465A6
:103D8000D0F80875D0F810854FF0FF321146FFF7D4
:103D9000D0FE4FF0FF3220681146FFF7CFFE15F13D
:103DA000010F1CBF2846FFF717FF16F1010F1CBFBC
:103DB0003046FFF711FF18F1010F1CBF4046FFF717
:103DC0000BFF17F1010F03D03846BDE8F04103E7C0
:103DD000BDE8F0810446DFF89004217900EB411042
:103DE000007F70472DE9F0410446DFF87C8420799C
:103DF00008EB40170D46F87E164608B1082020E073
:103E0000687F38772046FFF7FCFE7E6028693860BF
:103E1000786818B1297F2046FFF757FF207921687D
:103E200008EB4010007F002814BF08200420C1F8D0
:103E300000050020F8753876B8750120F876002066
:103E4000B876BDE8F08138B500F0FAF800B100208E
:103E50002168C1F80005686810B12046FFF75FFFD0
:103E60002046FFF76FFF0020E876686031BD38B567
:103E70000D4604464FF48E71FFF752FEA868A98ADA
:103E8000085CA98A491CA982C4F81C0531BDF8B593
:103E90000446DFF8D403217900EB411500F01FF848
:103EA00000F0C9F82168A87DAB6801F244520026F1
:103EB0001360506001208860686870B920684FF412
:103EC0009071FFF745FE074600F0B1F850EA070190
:103ED000F4D000B10F260020A8753046F2BD20684E
:103EE0004FF490712BE62DE9F0410446DFF878534A
:103EF000207905EB40170E46387F00281EBF06F0DC
:103F00006040B0F1005F1020904641D1204600F0A3
:103F100049F808B111203BE087F81680BE60B882EE
:103F2000207905EB4015287F18B12046BDE8F04107
:103F3000ADE700F033F820680121816000262946B2
:103F4000FFF795FF686810BB0EE000F023F818B982
:103F5000A88AB0F5807FF8D1A88AB0F5807F03D019
:103F600020682946FFF783FFA88AA97D8842ECD301
:103F7000A88AB0F5807F08BF0F2606D000F00AF8A7
:103F80000028FBD021680120C8600020A8753046B9
:103F9000BDE8F08120684FF48E71C2E520684FF4CF
:103FA0008E71BDE50079DFF8C01201EB4010807D15
:103FB00000B10120704738B50D460446E87D002861
:103FC0004FF48471204604D1FFF7AAFDD4F81805F8
:103FD00031BDFFF7A5FD687ED4F81815EA68815455
:103FE000687E401C687631BD20684FF4A271A6E55A
:103FF00000B585B0034601208DF808108DF800004B
:10400000019200A819685A680EE000B585B0024612
:1040100000208DF800008DF80810906801900020B5
:10402000907500A811685268904705B000BD2068DF
:104030004FF4AC718CE520684FF4AC71FFF77FBD95
:1040400004468948217900EB4115287F70477FB5E8
:104050000D4604464FF40071FFF764FD4FF40176FE
:1040600020B34FF4927100F07BF8F8B14FF49271E5
:104070002046FFF755FDC4F80863A87E08B9012063
:10408000606002208DF80000D4F88004C4F8800439
:104090000390E87D8DF80800E86801900020E8753D
:1040A000287629686A6800A8904729E004212046FC
:1040B000FFF738FD20B34FF4847100F051F8F8B1E8
:1040C00029462046FFF777FFE87D697E884217D1B1
:1040D000287E40B1EA68697EE8752869E8600020BA
:1040E0002876687609E0A87E08B901206060C4F8E7
:1040F00008630020EA68E875697E2846FFF778FFC4
:104100004FF48E7100F02CF890B1A88AA97D8842F6
:1041100004D229462046FFF7AAFE09E04FF48E712B
:104120002046FFF7FDFCA97D11B12846FFF76DFF82
:104130004FF4A27100F014F888B14FF4A271204638
:10414000FFF7EEFCA87E08B101202060E87D30B1C9
:104150000020EA68E8752846697EFFF749FF7FBDC1
:104160002046FFF7DEBC7FB50C464FF49271054642
:10417000FFF7EEFC05F23C56C0B14FF4927100F02F
:104180005EF802208DF80000D5F88004C5F88004A0
:10419000039030688DF80800E06801900020E07519
:1041A00020762168626800A8904722E04FF4887169
:1041B0002846FFF7CDFCE0B14FF4887100F03FF8DE
:1041C0003168E07DC9B2814213D1E268207E60B1DE
:1041D000D5F8000220F02000C5F80002207EE0752E
:1041E0002069E0600020207600E0E0752046FFF7BF
:1041F000FFFE4FF4A2712846FFF7AAFC68B14FF406
:10420000A27100F01CF8E07D38B10020E075204676
:104210003168E268C9B2FFF7EBFE4FF490712846AF
:10422000FFF796FC50B14FF4907100F008F8A07DB4
:1042300020B13169C9B22046FFF7E7FE7FBD2846AD
:10424000FFF77DBC08490C480A7F002A18BFFFF71A
:104250008ABFFCE60000000080E100E0000300509F
:104260000805005008080050300C00201003020020
:1042700080000200840202000020004001280AD0D1
:1042800002280BD004280CD008280DD010280ED0FE
:1042900020280FD011E00FF2344070470FF2344065
:1042A00070470FF2404070470FF2404070470FF2E6
:1042B0004C4070470FF25440704717E0012808D077
:1042C000022809D0042809D008280AD010280AD0CA
:1042D0000CE00FF250407047B2A070470FF24C4014
:1042E0007047B1A070470FF24C4070470FF22C405E
:1042F00070472DE9F043044695B02078D1288846D0
:104300001FD1E078542802D0552810D00CE0A178B5
:1043100009190020C871E01D0090A37962790FF29D
:10432000204101A800F0EEFA15B0BDE8F083A178B5
:10433000091900200871621DC3A101A800F0E2FA6A
:10434000F2E7D228F0D118220FF21C41E01CFFF74F
:1043500093FB0028E8D0A07E1A26102804BFE07E38
:104360000E2809D11E2607E06D1CEDB28542FBD355
:10437000F8788019061DF6B24645D5DA371938782F
:104380001028F9D17878452810D100250FF21C3972
:10439000F878EDB28542EBD256FA85F0001949461D
:1043A000027901A800F0AEFA6D1CF1E7032809D1EB
:1043B0007879FFF763FF02460FF2C43101A800F0DD
:1043C000A1FAD5E70F2806D17879FFF777FF0246E3
:1043D0000FF2C831F2E72728CAD1F8780025C4E7E0
:1043E00070470000F0B5DFB006A85021FEF78EFC44
:1043F0000FF2C0311CC903A80FF2C4311CC001A8C0
:104400000A680FF2C031026002A80A680FF2B831E0
:1044100002601AA81422FDF783F800AB1FAA092135
:1044200003A8FDF7A3FF03AC10B900F0CBF838B137
:104430009DF8001062781FA808180FF2A0313FE025
:1044400062780FF2CC3100F0C8F800F0B5F801AC9A
:1044500010B900F0B7F838B19DF80010A2781FA885
:1044600008180FF2D0312BE00FF2F436A278314663
:1044700000F0B3F800270FF2FC3502E000F0A9F8D5
:104480007F1C00F093F8F9DB00AB1FAA032102A800
:10449000FDF76CFF02AF60B900F094F848B900ABCB
:1044A0001FAA11211AA8FDF761FF10B900F08AF8C0
:1044B00060B19DF80010BA781FA808180FF2BC313F
:1044C00010F8013C06A800F01DFA68E0BA780FF277
:1044D000D83100F082F800F06FF810B900F072F8EF
:1044E00050B19DF800101FA808180FF2D03110F835
:1044F000012C00F072F852E0A278314600F06DF81D
:10450000002702E000F065F87F1C00F04FF8F9DBAF
:104510006748684A0168684800BF00BF00BF00BF25
:1045200000BF00BF00BF00BF91422FD000BF00BF3F
:1045300000BF00BF00BF00BF00BF00BF00BF00BF83
:1045400000BF00BF00BF00BF00BF00BF00BF00BF73
:1045500000BF00BF00BF00BF00BF00BF00BF00BF63
:1045600000BF00BF00BF00BF00BF00BF00BF00BF53
:1045700000BF00BF00BF00BF00BF00BF00BF00BF43
:1045800000BF00BF00BF00BF00BF00BF401EC3D1BF
:1045900000F012F818B900F015F8B228B8D15FB0E1
:1045A000F0BD000057455000414553009DF80010F4
:1045B000FFB2891E8F42704700AB1FAA032101A8DA
:1045C000FDF7D4BE9DF800101FA8081810F8010CC4
:1045D00070471FA978182946427806A800F092B9BA
:1045E00010B5044694B02078022805D1A17880291E
:1045F00007D1214601201BE0032802D121460220D9
:1046000016E0A178F02211421BD16278802A04D1F1
:10461000FFF7E8FEFEF79BF813E0052A18BF002815
:1046200009D00FF2B82100A800F06CF9214604204F
:10463000FEF737F905E0FEF795F808211F48FEF769
:1046400045F814B010BD000025730A0038B51C4CA5
:104650001C4D002020702A463721201DFEF73EFC0D
:104660002A463721201DFEF794FA174D2846FEF7FB
:104670009CFA2846FEF74EFB207840F00700207099
:104680002820FDF7B2FE10F1010F09D02078FDF7C8
:10469000FBFE28B9082104F13C00FEF717F810B121
:1046A0004FF0FF3032BD6070012032BD2563000045
:1046B000940200200024F40020A10700380100200B
:1046C000FC000020E1430000F34200004F70656EE3
:1046D000000000005750412D506572736F6E616C81
:1046E0000000000053686172656400005750412D5E
:1046F000456E74726570726973650000575041327F
:104700002D456E7472657072697365005750413241
:104710002D506572736F6E616C000000756E6B6E6C
:104720006F776E004E6F6E6500000000544B49506D
:10473000000000004145532F544B49500000000039
:1047400020202054657874207265636F726420287D
:104750006C616E6775616765203D2025632563295F
:104760003A2025730A0000006170706C69636174FF
:10477000696F6E2F766E642E7766612E7773630095
:104780002D2041757468656E746963617465205489
:10479000797065203D2025730A0000002D20456EAC
:1047A0006372797074696F6E2054797065203D2052
:1047B00025730A00400110FFFFFFFFFFFF0000000C
:1047C0001030040010A0040010001122334455667C
:1047D000778899AABBCCDDEEFF00000020417574FC
:1047E00068656E74696361746520736563746F7264
:1047F000202564206661696C65642077697468208F
:104800006572726F72203078253032780A000000AD
:104810002041757468656E746963617465207365A1
:1048200063746F7220256420737563636565640A21
:1048300000000000205265616420626C6F636B2091
:104840002564206661696C656420776974682065F9
:1048500072726F72203078253032780A00000000C2
:10486000205265616420626C6F636B2025643A207E
:10487000000000003078253032582000205772693F
:10488000746520626C6F636B202564206661696CBF
:1048900065642077697468206572726F7220307861
:1048A000253032780A00000020426C6F636B2025AF
:1048B00064207772697474656E0A00002052656125
:1048C00064206661696C656420776974682065722C
:1048D000726F72203078253032780A00202D2050F7
:1048E0004F4C4C204D4F44453A2052656D6F7465D6
:1048F0002054256454206163746976617465640D85
:104900000A0000000CB41CB5044604A801900A4635
:10491000009401AB00A9074878441830FBF770FCFD
:10492000009A0021117000285CBF0098001B16BC83
:104930005DF80CFB43CAFFFF10B5012450E8003FAF
:1049400043EA040140E8001292F0000FF6D1084655
:1049500010BD80B5DFF89004FF2181600021016067
:10496000416000F214404160016001720FF28C401E
:1049700000F04EFA88B9DFF87404DFF87414DFF839
:104980007424401A002104E00C2303FB0123198046
:10499000491CB1EBD00FF7D3002002BD30B5B9B13F
:1049A000DFF84814DFF848240568DFF84834891A2E
:1049B000002200E0521CB2EBD10F07D20C2404FB02
:1049C00002346488AC42F5D1026001E0052030BDBC
:1049D000002030BD01B500A8FFF7E0FF28B9DFF8DF
:1049E0001004009950F8310002BD002002BDDFF82C
:1049F0000024012902EBC00006D00DD3032907D003
:104A000004D3042906D007E0022070470420704731
:104A100000797047407970470020704770B5DFF823
:104A2000C84384B004F58360FFF786FF04F21445A1
:104A30002846FFF781FF6068A16805E0C2F389138B
:104A400003EB9252521C101801EA000204EB82029E
:104A50000C32126812F0030FF0D0002200AE01EA0F
:104A6000000304EB8303401CDB6846F82230521C31
:104A7000022AF4D3009901F00301012907D0022989
:104A800009D10099890DC91C00EB910003E0009940
:104A9000C1F383110818002655E8003F03EA060217
:104AA00045E8002191F0000FF6D103B160607FBDB1
:104AB000F0B5059CDFF830535E1C234005EB830303
:104AC0000C33264005EB8606070CC4064CBF0424B5
:104AD000002400F0070044EAC00040EA821080058C
:104AE000800D40EA8120F76040F001001860F0BDC1
:104AF00070B5841C0E46002000F041FADFF8E85241
:104B000028683060A61C01E0FFF788FFA8682968C4
:104B1000401C401A69680818B042F5D32868A96893
:104B2000084005EB800050F80C1F41F003010160C4
:104B3000286820182860002000F022FA012070BDAB
:104B40002DE9F043DFF8A06283B004460D46994694
:104B5000B768904601A94846FFF7CAFFA8B1019877
:104B6000801C002108E007EA000206EB820258F8E8
:104B70002130D360401C491C4945F4D300974A4674
:104B8000019B29462046FFF793FF96F81C0418B1B5
:104B900000F010F80028FBD1BDE8F78300230022C5
:104BA000CEE7914841680068814201D101207047F9
:104BB000002070472DE9FE4FFFF7F3FF002840F07B
:104BC000B180894D05F58264A060BFF34F8F05F178
:104BD0000409D9F800A0D9F804B005E0C0F38911A0
:104BE00001EB9050401C824400F0C3F80C30006888
:104BF00010F0030FF2D0002700A900F0BAF80AF174
:104C0000010AC06841F827007F1C022FF5D30099E4
:104C10000FF2E81001F003010229009947D18E0D2F
:104C20003746502EA8BF502666F39F51009106F1DB
:104C3000080100F0EFF85FEA000837D000F032F921
:104C400000F091F80BEA0A000BF10101091A8A0041
:104C5000B24205EB800018D22AB905F10C01B34627
:104C60000025002604E000F10C0193460C35B61A2D
:104C70005FFA8BFB08235A46404600F068F95DB1A5
:104C80000BF10803F2B2294603E00823324600F193
:104C90000C01404600F05BF9F81C0AEB900A27680B
:104CA000A068002848D0404600F00AF953E001F01F
:104CB000030101292ED10099009AC1F3831106291D
:104CC000A8BF062122F4707242EA81110091009976
:104CD000C1F38311891C890000F09CF85FEA000889
:104CE00039D000F0DFF800F03EF8082600270098E1
:104CF000C0F383108742D2D200F03BF800F10C01E0
:104D000033460422404600F022F90AF1010A361D1A
:104D10007F1CECE7009800F00300032804BFA068A4
:104D2000002818D100201CE0787A20B13A68126877
:104D30004146384690477F68002FF5D1404600F045
:104D4000BFF8002000F01BF9A06808B9C9F800A05E
:104D5000002000F015F9FFF724FF00F0010080F0BB
:104D60000100BDE8FE8F0023082200A9404600F0A4
:104D7000EEB80BEA0A0005EB8000704710B5002181
:104D8000194AD2F8103400E05B6843B11C7A8C42B7
:104D9000FAD1491C0A29F4DB4FF0FF3110E011F180
:104DA000010F0DD00172D2F8103423B9C2F81004EB
:104DB0000022426004E05B684360D2F81024506037
:104DC000084610BD10B50C4804680121017306E0C7
:104DD0000120607220462168496888476468002C79
:104DE000F6D110BD0000000098020020C46500004C
:104DF00094650000940C0020A8060020700C002090
:104E0000680C0020700C0020300A00201800000000
:104E100000F0BAB82DE9F04104460F46208A061F7B
:104E2000204600F0C8F8050021D000202871EE804F
:104E300001206871A846F019C01CB0FBF6F0C0B2A2
:104E4000461EC8F80040002707E06979491C6971CF
:104E5000C8F80000046080467F1CB74209D2204693
:104E600000F0A9F80028F0D1284600F005F800204D
:104E700000E02846BDE8F081F8B544790546611E9A
:104E8000002200E0521C2D688A42FBD3002606E077
:104E900007680146284600F0ADF83846761CA64261
:104EA000F6D3F1BD10B5031D012453E8002F02EB2A
:104EB000040143E8001090F0000FF6D110BD00008F
:104EC00038B5041D012554E8003FA3EB050244E872
:104ED000002191F0000FF6D100929DF800100029FA
:104EE00004BFBDE83240FFF7C7BF31BD2DE9F04731
:104EF000C68804468846181D1746B0FBF6F106FB27
:104F00001102002901E02468491EFCD1B01ABA46FA
:104F10008742089D4FF0000988BF82460AE0FCF7EF
:104F2000EFFA0022A7EB0A07D1442468BA46B74239
:104F300088BFB2464FB1131909EB0800002D524645
:104F400012BF191D0146181DE9E7BDE8F08710B52D
:104F500082B0002402E010B582B001240094FFF773
:104F6000C5FF13BD72B607480168491C0160704750
:104F700004480168491E016000D162B67047F1E73C
:104F8000F6E70000800C002010B508B90E2010BD17
:104F90000368416882681960521A03E019684C1C62
:104FA0001C600A7011464A1EC9B203680029F5D177
:104FB0000020187110BD38B504460020FFF7DFFF50
:104FC00020686268016800258A420ED2491E01608D
:104FD000E2680B78258A05FB0325A268511A02793D
:104FE000C9B28A4238BF0A4602710020FFF7C8FFE3
:104FF000284632BD38B504460D460020FFF7BFFFF6
:10500000206801684A1C0260E068228A281AB0FB06
:10501000F2F008700020BDE83240FFF7B1BFFEE7B4
:10502000DFF86C140858012818BF0020704700F101
:10503000804000F5C040002181B001600068009010
:10504000009801B0704741EA420141EA830210B57D
:105050000299202842EA012232BF4FF0A04400F01A
:105060001F00DFF83044039904EB800042EA01415D
:10507000C0F8001710BD202832BFDFF81C2400F054
:105080001F00DFF8182452F8203023F4403342F890
:10509000203052F8203043EA014197E0202832BF07
:1050A000DFF8FC1300F01F00DFF8F813096821FA9D
:1050B00000F202F0010070477CB50FF2FC3460CCC6
:1050C00000AB60C3034607E000AC54F82340D4F8BB
:1050D000104542F8044B5B1C0C18A342F4D373BD7B
:1050E000012200F00703C0089A40405C104070475E
:1050F000DFF8B413401890F9280008288041C00F49
:105100007047DFF8A413401890F92800082801DB45
:105110000120704700207047DFF88C13401890F989
:105120002800C043C00F7047F0B5002A4FF0FF338E
:1051300007BF08240A2500240825DFF86C6300E077
:10514000641CAC420DD256F824709F42F8D18319EA
:1051500083F8284046F8241012B9A11981F85000AC
:10516000234658B2F0BDDFF840134FF0FF3241F84C
:1051700020200828A4BF401880F85020704738B578
:10518000DFF8244394F85A0008B1082032BDFF220A
:10519000302104F12800FEF701FA00252846FFF728
:1051A000E2FF6D1C0A2DF9DB02210620FEF796FCBA
:1051B0004FF4BE70FFF73BFFDFF8F0124FF00040F6
:1051C0000860012084F85A00002032BD42F8201007
:1051D0007047F0B583B005460F461646FFF79CFFB3
:1051E000002408B1082446E0FA7831462846FFF743
:1051F0009BFF064616F1010F3CD0B87880B12846D7
:10520000202832BF4FF0A04100F01F00A14901EB60
:105210008000D0F8001721F00201C0F8001707E065
:105220000190009000227B7811462846FFF70BFF83
:10523000F878A0B139789E489E4B50F826201A4045
:1052400040F826202B02090450F8262003F47C5352
:1052500001F440311943114340F826100BE0924805
:105260003A573118301891F8501041EA821180F8FD
:10527000501000E004242046FEBDF8B50D46074658
:10528000894CFFF73EFF3E19B0B196F9280000198E
:1052900090F950000006800F032804D13846FFF72C
:1052A000FDFE10B103E0012801D1022100E003213D
:1052B0003846BDE8F440DEE63846FFF719FFD0B1C6
:1052C00096F928707A4850F8271041F0010140F80B
:1052D0002710B80000F5807000B2FFF7A8FE002D7F
:1052E0001EBF96F9280054F82000002803D00120A2
:1052F0006E49B8400860F1BD2DE9F04F89B002A8B1
:1053000000210A4606C000264FF4807901270825AF
:105310000FFA89F0FFF784FE00281EBF634800687B
:10532000384204D00FFA89F0FFF781FE3E437F0038
:105330006D1E09F10409EBD14FF4BE70FFF770FE4A
:1053400050B14FF4BE70FFF772FE02AA0221002096
:10535000FFF7B2FE46F000463006DFF84C9115D05C
:105360000127534C37420DD054F8250054F825102E
:1053700059F82520130005D0090C01F00301C0F3F2
:10538000052090477F006D1C082DEBD3002E7BD5A8
:1053900006A80021002206C04FF0FF3000900190C7
:1053A00006AE06E0049A02924160069A7068009286
:1053B00001900027002505EB090090F95800C4B2C0
:1053C00010F1010F24F0C0084BD000A94046FFF7B0
:1053D00087FE002845D0A00900F0030408EB09006F
:1053E00090F9280059F820A0BAF1000F02D1032C3F
:1053F00037D101E0032C08D14FEAD8000122815DAA
:1054000008F007039A40114381554046202832BFD7
:105410004FF0A04100F01F001E4901EB800002A9DF
:10542000D0F80007000C00F0030B4046FFF758FED1
:1054300018B1BBF1020F14D102E0BBF1030F10D180
:10544000032C08D1BBF1020F0CBF032102214046FF
:10545000FFF711FE7F1CBAF1000F02D02146404633
:10546000D0476D1C022DA6D3FFB26FB104AA022152
:105470000020FFF721FE049A029B059902A89A4298
:1054800004BF426891428DD109B0BDE8F08F0000A1
:10549000006000400003005000070050000A005068
:1054A0001005005010080050F00A0020046300406E
:1054B00010650040FFC0FCFF0000005000030050DA
:1054C00010B58268531C83600468115541688B4293
:1054D00024BFBDE8104000F087B910BD2DE9F84F9A
:1054E0008146884692461E4640464FF0010B03E037
:1054F000B0FBFAF00BF1010B5045F9D2B3450B9D0F
:105500000A9C38BFB346E8070ED46CB1A80700D593
:105510000EB1202700E03027A34505D2394600F020
:1055200078F8641E002CF7D1012702E0761E0AFBF2
:1055300007F7022EFAD2B8FBF7F0504528BF0AFB56
:1055400007F7F8D20FF29021B8FBF7F007FB1088AD
:10555000415C00F05EF8B7FBFAF7002FF2D1E807E4
:1055600007D534B1A34504D200F052F8641E002CD4
:10557000F8D1BDE8F18F2DE9FC4781460D462800A2
:1055800092461F4648BF40424FF0010803E090FB9F
:10559000FAF008F101085045F9DAB8450A9E0B9C6B
:1055A00038BFB84626B1002D01D4600700D5761E5D
:1055B000A00700D54FB1E00707D436B1B04504D2FB
:1055C00000F026F8761E002EF8D1002D02D56D428F
:1055D0002D2102E0600702D52B2100F01AF804F01B
:1055E0000300022808BF002F08D13EB1B04505D204
:1055F000302100F00EF8761E002EF7D101940096AF
:105600003B46524629464846FFF768FFBDE8F38708
:105610002021484654E72DE9F0430D0083B0804631
:10562000164600F0CA8015F8011B002900F0BD8065
:10563000252940F0B480002002E040F001006D1CFC
:1056400029782B2907D02D29F7D0302908BF40F021
:105650000200F4D002E040F00400F0E700270A2244
:1056600004E002FB07136D1CA3F130072A2907D1C0
:10567000316831606D1C51F8043B3160DF1904E082
:105680002978A1F130030A2BEBD3297800232E29A6
:105690000CD16D1C04E002FB03116D1CA1F1300361
:1056A0002978A1F1300CBCF10A0FF4D3297801E07C
:1056B00015F8011F6C2918BF6829F9D025296AD06F
:1056C00058291ED063290CD0642918BF69290FD02E
:1056D00070294AD073291DD075290FD0782910D090
:1056E0005BE03068306050F8041B3060C9B252E0B3
:1056F00000F065F84046FFF73EFF4EE000F05FF82F
:1057000045E03268326052F8041B32600190009725
:1057100010223CE031683160C00751F8044B316021
:105720004FF0000909D4B4B12046FBF735FE81469D
:1057300011E000F04EF809F1010914F8011B0029ED
:10574000F7D1B94529D247B300F042F87F1EF8E7F8
:1057500000F03EF87F1EB94501D2002FF8D114F8B1
:10576000011BD1B100F035F8F9E730683060302125
:1057700050F8047B306000F02CF8782100F029F814
:10578000002001900823082000901022394640464E
:10579000FFF7A4FE01E000F01CF86D1C01E000F032
:1057A00018F8287800287FF43EAF98F80C0020B154
:1057B0004046BDE8FE4300F017B8BDE8F783326805
:1057C000326052F8041B3260019000970A22704741
:1057D0002021404674E6000030313233343536370C
:1057E000383941424344454610B50446A2682AB1BF
:1057F00021682069636998470020A06010BD01B945
:1058000070470CB480B50FF218021268009202AA19
:10581000009200AAFFF7FFFE01BC5DF80CFB000040
:10582000000000000068D0F810254FF47A50414382
:1058300021FA02F070471FB50FF20C200FC800AC20
:1058400084E80F000FF2F8140023002200A920467C
:10585000FDF76BFC08B100F005F92046FDF79EFC52
:105860001FBDFCF704BEB0F5A07F08BFFCF703BE68
:10587000704710B584B0FFF782FC4949494C0320BA
:10588000086001A90FF2D010D0E90023CDE901236F
:1058900009208DF804002046434A00F0FBF801215E
:1058A0002046FFF7BFFF01210091C2B20123002172
:1058B000204600F052F9204600F034F90FF2A01013
:1058C0003A4A0068009000A90220FFF782FC0121FB
:1058D0000220FFF7D2FC1FBD10B582B00020FFF7F9
:1058E00038F808B100F0BEF8314C00F093F9208888
:1058F0000FF2CC0100F05EF8FFF75CF90028FBD155
:1059000020880FF2C80100F055F8FFF753F900287E
:10591000FBD1FFF790FF20880FF2BC0100F04AF89E
:10592000FFF748F90028FBD1FFF7A3FFFEF78EFE33
:1059300010F1010F09D120880FF2B00100F03AF800
:10594000FFF738F90028FBD1FEE72088000413A1F7
:1059500040F00300FFF722F9FFF72CF90028FBD1F4
:1059600020880FF29C0100F025F8FFF723F90028AA
:10597000FBD100A8FCF717FF20880FF29C0100F074
:1059800019F820880FF2A40100F014F8FFF712F9BB
:105990000028FBD100A8FEF723FEE1E74F4B2100D2
:1059A0003C0A00508C020020675800006358000039
:1059B000D00C0020000440F00300FFF7EFB8000017
:1059C000504E373135302064656D6F00496E697413
:1059D00020545749000000004E46432044454D4F97
:1059E00020494E49542E2E2E000000006661696C3D
:1059F0006564212048616C74204D435521000000EE
:105A0000446973636F766572696E67206465766951
:105A100063652E2E2E000000446576696365204480
:105A20006973636F766572656421000050726F63FD
:105A300065737320726164696F2E2E2E0000000062
:105A400000300040000100001B0000001A000000B0
:105A500000006806020000000000030700000000CC
:105A60000100000110B584B000A9002200231446F3
:105A70001CC1029000AA194644F2010000F0E0F8AF
:105A80001FBDFEE781B000220A5008580090009820
:105A900001B07047F8B50C460546544829790C23E7
:105AA00013FB0106307A08B10820F2BD100001D1C5
:105AB0000720F2BD326000276068706005E0B90021
:105AC00001F5A071FFF7DEFF7F1C69792868FFB23E
:105AD0008F42F4D3E17800030016FDF7FFFF28683A
